{
  "contractName": "Wallet",
  "abi": [
    {
      "inputs": [
        {
          "internalType": "address[]",
          "name": "_approvers",
          "type": "address[]"
        },
        {
          "internalType": "uint256",
          "name": "_quorum",
          "type": "uint256"
        }
      ],
      "stateMutability": "nonpayable",
      "type": "constructor"
    },
    {
      "inputs": [
        {
          "internalType": "address",
          "name": "",
          "type": "address"
        },
        {
          "internalType": "uint256",
          "name": "",
          "type": "uint256"
        }
      ],
      "name": "approvals",
      "outputs": [
        {
          "internalType": "bool",
          "name": "",
          "type": "bool"
        }
      ],
      "stateMutability": "view",
      "type": "function",
      "constant": true
    },
    {
      "inputs": [
        {
          "internalType": "uint256",
          "name": "",
          "type": "uint256"
        }
      ],
      "name": "approvers",
      "outputs": [
        {
          "internalType": "address",
          "name": "",
          "type": "address"
        }
      ],
      "stateMutability": "view",
      "type": "function",
      "constant": true
    },
    {
      "inputs": [],
      "name": "quorum",
      "outputs": [
        {
          "internalType": "uint256",
          "name": "",
          "type": "uint256"
        }
      ],
      "stateMutability": "view",
      "type": "function",
      "constant": true
    },
    {
      "inputs": [
        {
          "internalType": "uint256",
          "name": "",
          "type": "uint256"
        }
      ],
      "name": "transfers",
      "outputs": [
        {
          "internalType": "uint256",
          "name": "id",
          "type": "uint256"
        },
        {
          "internalType": "uint256",
          "name": "amount",
          "type": "uint256"
        },
        {
          "internalType": "address payable",
          "name": "to",
          "type": "address"
        },
        {
          "internalType": "uint256",
          "name": "approvers",
          "type": "uint256"
        },
        {
          "internalType": "bool",
          "name": "sent",
          "type": "bool"
        }
      ],
      "stateMutability": "view",
      "type": "function",
      "constant": true
    },
    {
      "stateMutability": "payable",
      "type": "receive",
      "payable": true
    },
    {
      "inputs": [],
      "name": "getApprovers",
      "outputs": [
        {
          "internalType": "address[]",
          "name": "",
          "type": "address[]"
        }
      ],
      "stateMutability": "view",
      "type": "function",
      "constant": true
    },
    {
      "inputs": [],
      "name": "getTransfer",
      "outputs": [
        {
          "components": [
            {
              "internalType": "uint256",
              "name": "id",
              "type": "uint256"
            },
            {
              "internalType": "uint256",
              "name": "amount",
              "type": "uint256"
            },
            {
              "internalType": "address payable",
              "name": "to",
              "type": "address"
            },
            {
              "internalType": "uint256",
              "name": "approvers",
              "type": "uint256"
            },
            {
              "internalType": "bool",
              "name": "sent",
              "type": "bool"
            }
          ],
          "internalType": "struct Wallet.Transfer[]",
          "name": "",
          "type": "tuple[]"
        }
      ],
      "stateMutability": "view",
      "type": "function",
      "constant": true
    },
    {
      "inputs": [
        {
          "internalType": "uint256",
          "name": "amount",
          "type": "uint256"
        },
        {
          "internalType": "address payable",
          "name": "to",
          "type": "address"
        }
      ],
      "name": "createTransfer",
      "outputs": [],
      "stateMutability": "nonpayable",
      "type": "function"
    },
    {
      "inputs": [
        {
          "internalType": "uint256",
          "name": "_id",
          "type": "uint256"
        }
      ],
      "name": "approveTransfer",
      "outputs": [],
      "stateMutability": "nonpayable",
      "type": "function"
    }
  ],
  "bytecode": "0x60806040523480156200001157600080fd5b506040516200130e3803806200130e8339818101604052810190620000379190620001dd565b81600090805190602001906200004f9291906200005f565b508060018190555050506200030e565b828054828255906000526020600020908101928215620000db579160200282015b82811115620000da5782518260006101000a81548173ffffffffffffffffffffffffffffffffffffffff021916908373ffffffffffffffffffffffffffffffffffffffff1602179055509160200191906001019062000080565b5b509050620000ea9190620000ee565b5090565b5b8082111562000109576000816000905550600101620000ef565b5090565b6000620001246200011e846200026b565b62000237565b905080838252602082019050828560208602820111156200014457600080fd5b60005b858110156200017857816200015d888262000182565b84526020840193506020830192505060018101905062000147565b5050509392505050565b6000815190506200019381620002da565b92915050565b600082601f830112620001ab57600080fd5b8151620001bd8482602086016200010d565b91505092915050565b600081519050620001d781620002f4565b92915050565b60008060408385031215620001f157600080fd5b600083015167ffffffffffffffff8111156200020c57600080fd5b6200021a8582860162000199565b92505060206200022d85828601620001c6565b9150509250929050565b6000604051905081810181811067ffffffffffffffff82111715620002615762000260620002d8565b5b8060405250919050565b600067ffffffffffffffff821115620002895762000288620002d8565b5b602082029050602081019050919050565b6000620002a782620002ae565b9050919050565b600073ffffffffffffffffffffffffffffffffffffffff82169050919050565b6000819050919050565bfe5b620002e5816200029a565b8114620002f157600080fd5b50565b620002ff81620002ce565b81146200030b57600080fd5b50565b610ff0806200031e6000396000f3fe60806040526004361061007f5760003560e01c8063b87141bf1161004e578063b87141bf1461014b578063cacca4a014610176578063d3650fb81461019f578063ffabc673146101dc57610086565b80631703a0181461008b5780634c12fa47146100b65780636cb3e8ef146100df5780639377d7111461010a57610086565b3661008657005b600080fd5b34801561009757600080fd5b506100a0610219565b6040516100ad9190610e2a565b60405180910390f35b3480156100c257600080fd5b506100dd60048036038101906100d89190610a88565b61021f565b005b3480156100eb57600080fd5b506100f46103f2565b6040516101019190610d6b565b60405180910390f35b34801561011657600080fd5b50610131600480360381019061012c9190610a5f565b610480565b604051610142959493929190610e45565b60405180910390f35b34801561015757600080fd5b506101606104f3565b60405161016d9190610d8d565b60405180910390f35b34801561018257600080fd5b5061019d60048036038101906101989190610a5f565b6105e1565b005b3480156101ab57600080fd5b506101c660048036038101906101c19190610a5f565b610976565b6040516101d39190610d50565b60405180910390f35b3480156101e857600080fd5b5061020360048036038101906101fe9190610a23565b6109b5565b6040516102109190610daf565b60405180910390f35b60015481565b6000805b6000805490508110156102ad573373ffffffffffffffffffffffffffffffffffffffff166000828154811061025457fe5b9060005260206000200160009054906101000a900473ffffffffffffffffffffffffffffffffffffffff1673ffffffffffffffffffffffffffffffffffffffff1614156102a057600191505b8080600101915050610223565b5060011515811515146102f5576040517f08c379a00000000000000000000000000000000000000000000000000000000081526004016102ec90610dea565b60405180910390fd5b60026040518060a0016040528060028054905081526020018581526020018473ffffffffffffffffffffffffffffffffffffffff16815260200160008152602001600015158152509080600181540180825580915050600190039060005260206000209060050201600090919091909150600082015181600001556020820151816001015560408201518160020160006101000a81548173ffffffffffffffffffffffffffffffffffffffff021916908373ffffffffffffffffffffffffffffffffffffffff1602179055506060820151816003015560808201518160040160006101000a81548160ff0219169083151502179055505050505050565b6060600080548060200260200160405190810160405280929190818152602001828054801561047657602002820191906000526020600020905b8160009054906101000a900473ffffffffffffffffffffffffffffffffffffffff1673ffffffffffffffffffffffffffffffffffffffff168152602001906001019080831161042c575b5050505050905090565b6002818154811061049057600080fd5b90600052602060002090600502016000915090508060000154908060010154908060020160009054906101000a900473ffffffffffffffffffffffffffffffffffffffff16908060030154908060040160009054906101000a900460ff16905085565b60606002805480602002602001604051908101604052809291908181526020016000905b828210156105d857838290600052602060002090600502016040518060a001604052908160008201548152602001600182015481526020016002820160009054906101000a900473ffffffffffffffffffffffffffffffffffffffff1673ffffffffffffffffffffffffffffffffffffffff1673ffffffffffffffffffffffffffffffffffffffff168152602001600382015481526020016004820160009054906101000a900460ff16151515158152505081526020019060010190610517565b50505050905090565b6000805b60008054905081101561066f573373ffffffffffffffffffffffffffffffffffffffff166000828154811061061657fe5b9060005260206000200160009054906101000a900473ffffffffffffffffffffffffffffffffffffffff1673ffffffffffffffffffffffffffffffffffffffff16141561066257600191505b80806001019150506105e5565b5060011515811515146106b7576040517f08c379a00000000000000000000000000000000000000000000000000000000081526004016106ae90610dea565b60405180910390fd5b60001515600283815481106106c857fe5b906000526020600020906005020160040160009054906101000a900460ff16151514610729576040517f08c379a000000000000000000000000000000000000000000000000000000000815260040161072090610dca565b60405180910390fd5b60001515600360003373ffffffffffffffffffffffffffffffffffffffff1673ffffffffffffffffffffffffffffffffffffffff168152602001908152602001600020600084815260200190815260200160002060009054906101000a900460ff161515146107cd576040517f08c379a00000000000000000000000000000000000000000000000000000000081526004016107c490610e0a565b60405180910390fd5b6001600360003373ffffffffffffffffffffffffffffffffffffffff1673ffffffffffffffffffffffffffffffffffffffff168152602001908152602001600020600084815260200190815260200160002060006101000a81548160ff0219169083151502179055506002828154811061084357fe5b9060005260206000209060050201600301600081548092919060010191905055506001546002838154811061087457fe5b906000526020600020906005020160030154106109725760016002838154811061089a57fe5b906000526020600020906005020160040160006101000a81548160ff0219169083151502179055506000600283815481106108d157fe5b906000526020600020906005020160020160009054906101000a900473ffffffffffffffffffffffffffffffffffffffff16905060006002848154811061091457fe5b90600052602060002090600502016001015490508173ffffffffffffffffffffffffffffffffffffffff166108fc829081150290604051600060405180830381858888f1935050505015801561096e573d6000803e3d6000fd5b5050505b5050565b6000818154811061098657600080fd5b906000526020600020016000915054906101000a900473ffffffffffffffffffffffffffffffffffffffff1681565b60036020528160005260406000206020528060005260406000206000915091509054906101000a900460ff1681565b6000813590506109f381610f75565b92915050565b600081359050610a0881610f8c565b92915050565b600081359050610a1d81610fa3565b92915050565b60008060408385031215610a3657600080fd5b6000610a44858286016109e4565b9250506020610a5585828601610a0e565b9150509250929050565b600060208284031215610a7157600080fd5b6000610a7f84828501610a0e565b91505092915050565b60008060408385031215610a9b57600080fd5b6000610aa985828601610a0e565b9250506020610aba858286016109f9565b9150509250929050565b6000610ad08383610b12565b60208301905092915050565b6000610ae88383610cca565b60a08301905092915050565b610afd81610f2d565b82525050565b610b0c81610f2d565b82525050565b610b1b81610f1b565b82525050565b610b2a81610f1b565b82525050565b6000610b3b82610eb8565b610b458185610ee8565b9350610b5083610e98565b8060005b83811015610b81578151610b688882610ac4565b9750610b7383610ece565b925050600181019050610b54565b5085935050505092915050565b6000610b9982610ec3565b610ba38185610ef9565b9350610bae83610ea8565b8060005b83811015610bdf578151610bc68882610adc565b9750610bd183610edb565b925050600181019050610bb2565b5085935050505092915050565b610bf581610f3f565b82525050565b610c0481610f3f565b82525050565b6000610c17602083610f0a565b91507f7472616e73666572732068617320616c7265616479206265656e2065786163746000830152602082019050919050565b6000610c57601583610f0a565b91507f6f6e6c7920617070726f76657220616c6c6f77656400000000000000000000006000830152602082019050919050565b6000610c97601683610f0a565b91507f63616e6e6f74206170726f7665207461726e73666572000000000000000000006000830152602082019050919050565b60a082016000820151610ce06000850182610d32565b506020820151610cf36020850182610d32565b506040820151610d066040850182610af4565b506060820151610d196060850182610d32565b506080820151610d2c6080850182610bec565b50505050565b610d3b81610f6b565b82525050565b610d4a81610f6b565b82525050565b6000602082019050610d656000830184610b21565b92915050565b60006020820190508181036000830152610d858184610b30565b905092915050565b60006020820190508181036000830152610da78184610b8e565b905092915050565b6000602082019050610dc46000830184610bfb565b92915050565b60006020820190508181036000830152610de381610c0a565b9050919050565b60006020820190508181036000830152610e0381610c4a565b9050919050565b60006020820190508181036000830152610e2381610c8a565b9050919050565b6000602082019050610e3f6000830184610d41565b92915050565b600060a082019050610e5a6000830188610d41565b610e676020830187610d41565b610e746040830186610b03565b610e816060830185610d41565b610e8e6080830184610bfb565b9695505050505050565b6000819050602082019050919050565b6000819050602082019050919050565b600081519050919050565b600081519050919050565b6000602082019050919050565b6000602082019050919050565b600082825260208201905092915050565b600082825260208201905092915050565b600082825260208201905092915050565b6000610f2682610f4b565b9050919050565b6000610f3882610f4b565b9050919050565b60008115159050919050565b600073ffffffffffffffffffffffffffffffffffffffff82169050919050565b6000819050919050565b610f7e81610f1b565b8114610f8957600080fd5b50565b610f9581610f2d565b8114610fa057600080fd5b50565b610fac81610f6b565b8114610fb757600080fd5b5056fea264697066735822122079feaf497a1e2bebee2c97b4902f3c13b606b3579114a67de8c4bc39a98f936964736f6c63430007060033",
  "immutableReferences": {},
  "source": "//SPDX-License-Identifier: MIT\npragma solidity >=0.4.22 <0.8.0;\npragma abicoder v2;\n\ncontract Wallet {\n    address[] public approvers;\n    uint public quorum;\n\n\n    struct Transfer {\n        uint id;\n        uint amount;\n        address payable to;\n        uint approvers;\n        bool sent;\n    }\n\n    Transfer[] public transfers;\n    mapping(address => mapping(uint => bool)) public approvals;\n\n\n    constructor(address[] memory _approvers, uint _quorum) public {\n        approvers = _approvers;\n        quorum = _quorum;\n    }\n\n    function getApprovers() external view returns (address[] memory){\n        return approvers;\n    }\n\n    function getTransfer() external view returns (Transfer[] memory){\n        return transfers;\n    }\n\n    function createTransfer(uint amount, address payable to) external onlyApprover {\n        transfers.push(Transfer(\n        transfers.length,\n        amount,\n        to,\n        0,\n        false\n        ));\n    }\n\n    function approveTransfer(uint _id) external onlyApprover() {\n        require(transfers[_id].sent == false, 'transfers has already been exact');\n        require(approvals[msg.sender][_id] == false, 'cannot aprove tarnsfer');\n\n        approvals[msg.sender][_id] = true;\n        transfers[_id].approvers++;\n\n        if (transfers[_id].approvers >= quorum) {\n            transfers[_id].sent = true;\n            address payable to = transfers[_id].to;\n            uint amount = transfers[_id].amount;\n            to.transfer(amount);\n        }\n    }\n\n    receive() external payable {}\n\n    modifier onlyApprover() {\n        bool allowed = false;\n        for (uint i = 0; i < approvers.length; i++) {\n            if (approvers[i] == msg.sender) {\n                allowed = true;\n            }\n        }\n        require(allowed == true, 'only approver allowed');\n        _;\n    }\n}",
  "sourcePath": "/home/notorious/WebstormProjects/Solidity/wallet/contracts/Wallet.sol",
  "compiler": {
    "name": "solc",
    "version": "0.7.6+commit.7338295f.Emscripten.clang"
  },
  "schemaVersion": "3.3.3",
  "updatedAt": "2021-02-23T17:48:40.064Z",
  "networkType": "ethereum",
  "devdoc": {
    "kind": "dev",
    "methods": {},
    "version": 1
  },
  "userdoc": {
    "kind": "user",
    "methods": {},
    "version": 1
  }
}